:100000000C942A000C9485020C9485020C948502B1
:100010000C9485020C9485020C9485020C94850244
:100020000C9485020C9485020C9485020C94850234
:100030000C9485020C9485020C9485020C94850224
:100040000C9485020C9485020C9485020C94850214
:100050000C94850211241FBECFE5D8E0DEBFCDBFD2
:0C0060000E9448010C947A02F894FFCF33
:10006C009DEC899F912D1124292F26952695269557
:10007C00220F322F330F330F230F821B282F96950D
:10008C0096959695613019F06230C1F108959230D1
:10009C00A1F018F4913031F008959330C9F09430F8
:1000AC0011F108953AB381E090E002C0880F991FD6
:1000BC002A95E2F7832B8ABB089537B381E090E051
:1000CC0002C0880F991F2A95E2F7832B87BB0895EE
:1000DC0034B381E090E002C0880F991F2A95E2F7B3
:1000EC00832B84BB089531B381E090E002C0880F6C
:1000FC00991F2A95E2F7832B81BB08959230A9F0C2
:10010C0018F4913031F008959330D9F0943029F1EE
:10011C0008953AB381E090E002C0880F991F2A95A8
:10012C00E2F7809583238ABB089537B381E090E092
:10013C0002C0880F991F2A95E2F78095832387BB0D
:10014C00089534B381E090E002C0880F991F2A957E
:10015C00E2F78095832384BB089531B381E090E06E
:10016C0002C0880F991F2A95E2F78095832381BBE3
:02017C000895E4
:10017E009DEC899F912D1124292F26952695269544
:10018E00220F322F330F330F230F821B282F9695FA
:10019E0096959695613019F06230C1F108959230BE
:1001AE00A1F018F4913031F008959330C9F09430E5
:1001BE0011F108953BB381E090E002C0880F991FC2
:1001CE002A95E2F7832B8BBB089538B381E090E03C
:1001DE0002C0880F991F2A95E2F7832B88BB0895DA
:1001EE0035B381E090E002C0880F991F2A95E2F79F
:1001FE00832B85BB089532B381E090E002C0880F57
:10020E00991F2A95E2F7832B82BB08959230A9F0AD
:10021E0018F4913031F008959330D9F0943029F1DB
:10022E0008953BB381E090E002C0880F991F2A9594
:10023E00E2F7809583238BBB089538B381E090E07D
:10024E0002C0880F991F2A95E2F78095832388BBF9
:10025E00089535B381E090E002C0880F991F2A956A
:10026E00E2F78095832385BB089532B381E090E059
:10027E0002C0880F991F2A95E2F78095832382BBCF
:02028E000895D1
:1002900082E00E943B0281E00E943B0280E00E94DB
:1002A0003B0282E00E9450022FEF83E294EF215044
:1002B00080409040E1F700C0000082E00E946502AB
:1002C0002FEF89E698E1215080409040E1F700C08F
:1002D000000081E00E94FC012FEF80E792E02150B6
:1002E00080409040E1F700C0000081E00E94FC01E6
:1002F0002FEF80E792E0215080409040E1F700C06E
:10030000000081E00E94FC012FEF80E792E0215085
:1003100080409040E1F700C0000081E00E94FC01B5
:100320002FEF80E792E0215080409040E1F700C03D
:10033000000080E00E9450022FEF83E294EF2150F2
:1003400080409040E1F700C0000080E00E9465021C
:100350002FEF89E698E1215080409040E1F700C0FE
:0403600000009FCF2B
:100364009DEC899F912D1124292F2695269526955C
:10037400220F322F330F330F230F821B282F892F85
:100384008695869586958230A1F018F4813031F0F7
:1003940008958330C9F0843011F108953BB381E0AE
:1003A40090E002C0880F991F2A95E2F783278BBB40
:1003B400089538B381E090E002C0880F991F2A9510
:1003C400E2F7832788BB089535B381E090E002C04B
:1003D400880F991F2A95E2F7832785BB089532B3C6
:1003E40081E090E002C0880F991F2A95E2F78327E5
:0403F40082BB08952B
:1003F8008130B1F018F0823029F1089561E08EE182
:100408000E94BF002FEF89EF90E02150804090407C
:10041800E1F700C0000062E08EE10E94BF0008958D
:1004280061E08FE10E94BF002FEF89EF90E021503B
:1004380080409040E1F700C0000062E08FE10E9438
:10044800BF00089580E20E94B20161E080E20E944C
:10045800BF002FEF89EF90E0215080409040E1F7F6
:0E04680000C0000062E080E20E94BF00089524
:10047600813049F018F0823059F0089561E08EE13C
:100486000E943600089561E08FE10E9436000895CB
:0A04960061E080E20E943600089544
:1004A000813049F018F0823059F0089561E08EE112
:1004B0000E94BF00089561E08FE10E94BF0008958F
:0A04C00061E080E20E94BF00089591
:1004CA00813049F018F0823059F0089562E08EE1E7
:1004DA000E94BF00089562E08FE10E94BF00089564
:0A04EA0062E080E20E94BF00089566
:1004F400EC010E948A020E948902CE010E948B02B2
:06050400CE010E948702F7
:04050A000C9400004D
:04050E000E94340013
:0205120008954A
:02051400089548
:02051600089546
:00000001FF
