:100000000C943E000C94E8030C94E8030C94E80371
:100010000C94E8030C94E8030C94E8030C94E803B4
:100020000C94E8030C94E8030C94E8030C94E803A4
:100030000C94E8030C94E8030C94E8030C94E80394
:100040000C94E8030C94E8030C94E8030C94E80384
:100050000C94E8039B03A003A503AA03AF03B40316
:10006000B903BE03C303C803540071008E00AB0084
:10007000C800E50002011F013C01590111241FBE07
:10008000CFE5D8E0DEBFCDBF0E9476010C94CD0352
:04009000F894FFCF12
:1000940090E08A30910508F026C1FC01EC5CFF4F2A
:1000A4000C94D80361E08BE00E94090361E08CE0CA
:1000B4000E94090361E08DE00E94090361E08EE083
:1000C4000E94090361E08FE00E94090361E080E17E
:1000D4000E94090362E081E10E940903089562E03D
:1000E4008BE00E94090361E08CE00E94090361E057
:1000F4008DE00E94090362E08EE00E94090362E041
:100104008FE00E94090362E080E10E94090362E03B
:1001140081E10E940903089561E08BE00E940903D4
:1001240061E08CE00E94090362E08DE00E94090313
:1001340061E08EE00E94090361E08FE00E94090300
:1001440062E080E10E94090361E081E10E94090309
:10015400089561E08BE00E94090361E08CE00E9455
:10016400090361E08DE00E94090361E08EE00E94D2
:10017400090362E08FE00E94090362E080E10E94CB
:10018400090361E081E10E940903089562E08BE0C4
:100194000E94090361E08CE00E94090361E08DE0A4
:1001A4000E94090362E08EE00E94090362E08FE08E
:1001B4000E94090361E080E10E94090361E081E19A
:1001C4000E940903089561E08BE00E94090362E044
:1001D4008CE00E94090361E08DE00E94090361E064
:1001E4008EE00E94090362E08FE00E94090361E04F
:1001F40080E10E94090361E081E10E9409030895FE
:1002040061E08BE00E94090362E08CE00E94090334
:1002140061E08DE00E94090361E08EE00E94090321
:1002240061E08FE00E94090361E080E10E9409031C
:1002340061E081E10E940903089561E08BE00E947E
:10024400090361E08CE00E94090361E08DE00E94F3
:10025400090362E08EE00E94090362E08FE00E94DD
:10026400090362E080E10E94090362E081E10E94E7
:100274000903089561E08BE00E94090361E08CE0CA
:100284000E94090361E08DE00E94090361E08EE0B1
:100294000E94090361E08FE00E94090361E080E1AC
:1002A4000E94090361E081E10E940903089561E06D
:1002B4008BE00E94090361E08CE00E94090361E085
:1002C4008DE00E94090362E08EE00E94090362E06F
:1002D4008FE00E94090361E080E10E94090361E06C
:0802E40081E10E940903089565
:1002EC0080E00E94920381E00E94920382E00E94CF
:1002FC00920383E00E94920384E00E94920385E0C3
:10030C000E94920386E00E9492030E94E3030E94E3
:10031C00DE0380E00E944A002FEF83ED90E3215032
:10032C0080409040E1F700C0000081E00E944A004C
:10033C002FEF83ED90E3215080409040E1F700C017
:10034C00000082E00E944A002FEF83ED90E32150E1
:10035C0080409040E1F700C0000083E00E944A001A
:10036C002FEF83ED90E3215080409040E1F700C0E7
:10037C00000084E00E944A002FEF83ED90E32150AF
:10038C0080409040E1F700C0000085E00E944A00E8
:10039C002FEF83ED90E3215080409040E1F700C0B7
:1003AC00000086E00E944A002FEF83ED90E321507D
:1003BC0080409040E1F700C0000087E00E944A00B6
:1003CC002FEF83ED90E3215080409040E1F700C087
:1003DC00000088E00E944A002FEF83ED90E321504B
:1003EC0080409040E1F700C0000089E00E944A0084
:1003FC002FEF83ED90E3215080409040E1F700C057
:10040C00000080E00E944A002FEF83ED90E3215022
:10041C0080409040E1F700C0000081E00E944A005B
:10042C002FEF83ED90E3215080409040E1F700C026
:10043C00000082E00E944A002FEF83ED90E32150F0
:10044C0080409040E1F700C0000083E00E944A0029
:10045C002FEF83ED90E3215080409040E1F700C0F6
:10046C00000084E00E944A002FEF83ED90E32150BE
:10047C0080409040E1F700C0000085E00E944A00F7
:10048C002FEF83ED90E3215080409040E1F700C0C6
:10049C00000086E00E944A002FEF83ED90E321508C
:1004AC0080409040E1F700C0000087E00E944A00C5
:1004BC002FEF83ED90E3215080409040E1F700C096
:1004CC00000088E00E944A002FEF83ED90E321505A
:1004DC0080409040E1F700C0000089E00E944A0093
:1004EC002FEF83ED90E3215080409040E1F700C066
:0404FC00000087CFA6
:100500009DEC899F912D1124292F269526952695BE
:10051000220F322F330F330F230F821B282F969574
:1005200096959695613019F06230C1F10895923038
:10053000A1F018F4913031F008959330C9F094305F
:1005400011F108953AB381E090E002C0880F991F3D
:100550002A95E2F7832B8ABB089537B381E090E0B8
:1005600002C0880F991F2A95E2F7832B87BB089555
:1005700034B381E090E002C0880F991F2A95E2F71A
:10058000832B84BB089531B381E090E002C0880FD3
:10059000991F2A95E2F7832B81BB08959230A9F029
:1005A00018F4913031F008959330D9F0943029F156
:1005B00008953AB381E090E002C0880F991F2A9510
:1005C000E2F7809583238ABB089537B381E090E0FA
:1005D00002C0880F991F2A95E2F78095832387BB75
:1005E000089534B381E090E002C0880F991F2A95E6
:1005F000E2F78095832384BB089531B381E090E0D6
:1006000002C0880F991F2A95E2F78095832381BB4A
:0206100008954B
:100612009DEC899F912D1124292F269526952695AB
:10062200220F322F330F330F230F821B282F969561
:1006320096959695613019F06230C1F10895923025
:10064200A1F018F4913031F008959330C9F094304C
:1006520011F108953BB381E090E002C0880F991F29
:100662002A95E2F7832B8BBB089538B381E090E0A3
:1006720002C0880F991F2A95E2F7832B88BB089541
:1006820035B381E090E002C0880F991F2A95E2F706
:10069200832B85BB089532B381E090E002C0880FBE
:1006A200991F2A95E2F7832B82BB08959230A9F015
:1006B20018F4913031F008959330D9F0943029F143
:1006C20008953BB381E090E002C0880F991F2A95FC
:1006D200E2F7809583238BBB089538B381E090E0E5
:1006E20002C0880F991F2A95E2F78095832388BB61
:1006F200089535B381E090E002C0880F991F2A95D2
:10070200E2F78095832385BB089532B381E090E0C0
:1007120002C0880F991F2A95E2F78095832382BB36
:02072200089538
:1007240090E08A309105B0F5FC01E65DFF4F0C9432
:10073400D80361E08BE00E948002089561E08CE0C0
:100744000E948002089561E08DE00E948002089575
:1007540061E08EE00E948002089561E08FE00E94D3
:100764008002089561E080E10E948002089561E0C2
:1007740081E10E948002089561E084E10E94800288
:10078400089561E084E20E948002089561E085E2B8
:060794000E94800208959E
:10079A00EC010E94ED030E94EC03CE010E94EE03DD
:0607AA00CE010E94EA03EB
:0C07B000EE0FFF1F0590F491E02D09945E
:0A07BC0061E084E20E940903089541
:0A07C60061E085E20E940903089536
:0407D0000C94000085
:0407D4000E94480037
:0207D800089582
:0207DA00089580
:0207DC0008957E
:00000001FF
