:100000000C942A000C94CE020C94CE020C94CE02D6
:100010000C94CE020C94CE020C94CE020C94CE0220
:100020000C94CE020C94CE020C94CE020C94CE0210
:100030000C94CE020C94CE020C94CE020C94CE0200
:100040000C94CE020C94CE020C94CE020C94CE02F0
:100050000C94CE0211241FBECFE5D8E0DEBFCDBF89
:0C0060000E943D000C94BF02F894FFCFFA
:0D006C00475245454E0059454C4C4F57003A
:10007A00CF93DF93CDB7DEB761970FB6F894DEBFA3
:10008A000FBECDBF0E94630261E08BE10E94D500E2
:10009A0061E08EE10E94D50061E08FE10E94D50007
:1000AA0061E080E20E94D5002CE630E040E086E084
:1000BA00F901DE011196742F0E94B20222E730E0A4
:1000CA0040E087E0F901DE011796742F0E94B20220
:1000DA0082E595E49F878E8784E490E0998B888BEC
:1000EA0061E08EE10E945E01CE0101960E949F02AC
:1000FA002FEF83EF91E0215080409040E1F700C05C
:10010A00000062E08EE10E945E010E94CA028FE155
:10011A009EE40197F1F700C0000061E08FE10E94C0
:10012A005E0161E08BE10E945E01CE0107960E94AA
:10013A009F029FEF23EF81E0915020408040E1F73A
:10014A0000C0000062E08FE10E945E0162E08BE184
:10015A000E945E010E94CA028FE19EE40197F1F7B4
:10016A0000C0000061E080E20E945E01CE010E96AE
:10017A000E949F029FEF26E781E091502040804035
:10018A00E1F700C0000062E080E20E945E010E9486
:10019A00CA028FE19EE40197F1F700C00000A0CFE8
:1001AA009DEC899F912D1124292F26952695269518
:1001BA00220F322F330F330F230F821B282F9695CE
:1001CA0096959695613019F06230C1F10895923092
:1001DA00A1F018F4913031F008959330C9F09430B9
:1001EA0011F108953AB381E090E002C0880F991F97
:1001FA002A95E2F7832B8ABB089537B381E090E012
:10020A0002C0880F991F2A95E2F7832B87BB0895AE
:10021A0034B381E090E002C0880F991F2A95E2F773
:10022A00832B84BB089531B381E090E002C0880F2C
:10023A00991F2A95E2F7832B81BB08959230A9F082
:10024A0018F4913031F008959330D9F0943029F1AF
:10025A0008953AB381E090E002C0880F991F2A9569
:10026A00E2F7809583238ABB089537B381E090E053
:10027A0002C0880F991F2A95E2F78095832387BBCE
:10028A00089534B381E090E002C0880F991F2A953F
:10029A00E2F78095832384BB089531B381E090E02F
:1002AA0002C0880F991F2A95E2F78095832381BBA4
:0202BA000895A5
:1002BC009DEC899F912D1124292F26952695269505
:1002CC00220F322F330F330F230F821B282F9695BB
:1002DC0096959695613019F06230C1F1089592307F
:1002EC00A1F018F4913031F008959330C9F09430A6
:1002FC0011F108953BB381E090E002C0880F991F83
:10030C002A95E2F7832B8BBB089538B381E090E0FC
:10031C0002C0880F991F2A95E2F7832B88BB08959A
:10032C0035B381E090E002C0880F991F2A95E2F75F
:10033C00832B85BB089532B381E090E002C0880F17
:10034C00991F2A95E2F7832B82BB08959230A9F06E
:10035C0018F4913031F008959330D9F0943029F19C
:10036C0008953BB381E090E002C0880F991F2A9555
:10037C00E2F7809583238BBB089538B381E090E03E
:10038C0002C0880F991F2A95E2F78095832388BBBA
:10039C00089535B381E090E002C0880F991F2A952B
:1003AC00E2F78095832385BB089532B381E090E01A
:1003BC0002C0880F991F2A95E2F78095832382BB90
:0203CC00089592
:1003CE00CF93C82F61E085E10E945E018BB39C2F15
:1003DE00907F8F70892B8BBB61E087E10E945E015D
:1003EE008FE99FE00197F1F700C0000062E087E11E
:1003FE000E945E018FE99FE00197F1F700C00000B7
:10040E0020E1C29FC00111249BB39F70892B8BBB2F
:10041E0061E087E10E945E018FE99FE00197F1F7AD
:10042E0000C0000062E087E10E945E018FE19EE461
:0C043E000197F1F700C00000CF91089575
:10044A00CF93C82F62E085E10E945E018BB39C2F97
:10045A00907F8F70892B8BBB61E087E10E945E01E0
:10046A008FE99FE00197F1F700C0000062E087E1A1
:10047A000E945E018FE99FE00197F1F700C000003A
:10048A0020E1C29FC00111249BB39F70892B8BBBB3
:10049A0061E087E10E945E018FE99FE00197F1F731
:1004AA0000C0000062E087E10E945E018FE19EE4E5
:0C04BA000197F1F700C00000CF910895F9
:1004C60061E08EE00E94D50061E08FE00E94D500D9
:1004D60061E080E10E94D50061E081E10E94D500E3
:1004E60061E085E10E94D50061E086E10E94D500C9
:1004F60061E087E10E94D50062E086E10E945E012C
:100506002FEF83ED90E3215080409040E1F700C04B
:10051600000088E30E94250283E30E94250282E30D
:100526000E9425028CE00E94250281E00E9425029D
:0805360082E00E9425020895F5
:10053E000F931F93CF938C01C0E003C00E94E7017D
:10054E00CF5FF801EC0FF11D80818111F7CFCF91B4
:06055E001F910F910895AA
:10056400992777FD05C005900D920197E1F708954D
:0A05740001900D920197E1F7089540
:10057E00EC010E94D3020E94D202CE010E94D4024C
:06058E00CE010E94D00224
:0805940081E00E942502089598
:04059C000C940000BB
:0405A0000E94340081
:0205A4000895B8
:0205A6000895B6
:0205A8000895B4
:00000001FF
