:100000003BC00000C2C10000C0C10000BEC1000072
:10001000BCC10000BAC10000B8C10000B6C10000F8
:10002000B4C10000B2C10000B0C10000AEC1000008
:10003000ACC10000AAC10000A8C10000A6C1000018
:10004000A4C10000A2C10000A0C100009EC1000028
:100050009CC10000710073007500770079007B007F
:100060007D007F006D006F009000A500A800AB0030
:10007000AE00B1008A008D0011241FBECFE5D8E08C
:0C008000DEBFCDBF0AD002C0F894FFCF55
:0E008C00EC011AD016D0CE0115D0CE0114D042
:10009A0080E014D081E012D082E010D083E00ED04C
:1000AA0084E00CD085E00AD086E008D058D080E001
:0400BA0023D0FFCF81
:0200BE000895A3
:0200C0000895A1
:0200C200E2DF7B
:0200C40008959D
:1000C60090E08A30910508F00895FC01E65DFF4F47
:1000D60061E0CEC084E248C085E246C08BE044C001
:1000E6008CE042C08DE040C08EE03EC08FE03CC058
:0C00F60080E13AC081E138C084E136C0EE
:1001020090E08830910508F00895FC01EC5CFF4F07
:10011200B1C061E081E12AC061E084E127C060E012
:100122008BE0AED060E08CE0ABD060E08DE0A8D098
:1001320060E08EE0A5D060E08FE0A2D060E080E1D8
:100142009FD060E081E19CC061E08CE00FC061E083
:100152008DE00CC061E08EE009C061E08FE006C076
:0601620061E080E103C032
:0601680061E085E28AC09F
:10016E009DEC899F912D1124292F26952695269554
:10017E003AE0239F80191124282F969596959695EF
:10018E006130C1F06230A9F4923009F453C088F1A5
:10019E00933009F45AC0943009F065C031B381E050
:1001AE0090E001C0880F2A95EAF78095832381BBE2
:1001BE0008950895923051F178F0933089F194308A
:1001CE0009F04EC031B381E090E001C0880F2A954E
:1001DE00EAF7832B81BB0895913009F043C03AB3FF
:1001EE0081E090E001C0880F2A95EAF7832B8ABB45
:1001FE0008959130B1F53AB381E090E001C0880FD7
:10020E002A95EAF7809583238ABB089537B381E058
:10021E0090E001C0880F2A95EAF7832B87BB0895DB
:10022E0034B381E090E001C0880F2A95EAF7832B62
:10023E0084BB089537B381E090E001C0880F2A9502
:10024E00EAF78095832387BB089534B381E090E06D
:10025E0001C0880F2A95EAF78095832384BB089501
:08026E00089508950895089514
:0C027600EE0FFF1F0590F491E02D09949D
:100282009DEC899F912D1124292F2695269526953F
:100292003AE0239F80191124282F969596959695DA
:1002A2006130C1F06230A9F4923009F453C088F190
:1002B200933009F45AC0943009F065C032B381E03A
:1002C20090E001C0880F2A95EAF78095832382BBCC
:1002D20008950895923051F178F0933089F1943075
:1002E20009F04EC032B381E090E001C0880F2A9538
:1002F200EAF7832B82BB0895913009F043C03BB3E8
:1003020081E090E001C0880F2A95EAF7832B8BBB2E
:1003120008959130B1F53BB381E090E001C0880FC0
:100322002A95EAF7809583238BBB089538B381E041
:1003320090E001C0880F2A95EAF7832B88BB0895C5
:1003420035B381E090E001C0880F2A95EAF7832B4C
:1003520085BB089538B381E090E001C0880F2A95EB
:10036200EAF78095832388BB089535B381E090E056
:1003720001C0880F2A95EAF78095832385BB0895EB
:080382000895089508950895FF
:02038A003ACE69
:00000001FF
